:020000040000FA
:08000000803102288731F62F40
:100BD0000800080023001D121D16080071082000DF
:100BE000A9007008A800080071082000AD00700876
:100BF000AC00080071082000AB007008AA000800D3
:100C0000640080010131890B012E0034C0302400C2
:100C100094003030950092010800F00024009513F4
:100C200070089100141C122E11080800F0302100E9
:100C3000990098012200960121001A1B08001C2E21
:100C40008631712686318631162686318631062612
:100C5000863186312C260800183023009F009830FA
:100C60009D0004309E0044309B009C01E930F00060
:100C70000530F1008531F4258631EA30F000053089
:100C8000F1008531FA258631E830F0000530F100B9
:100C90008531EE252000AE0108002000901E4D2E6B
:100CA000AE0123001D1D5B2E2000AE142D088A000E
:100CB0002C080A00863123009D1C652E20002E156D
:100CC0002B088A002A080A00863120002E08031902
:100CD0006E2E29088A0028080A0086312300190888
:100CE000080022008C018D018E01373021008C001C
:100CF00030308D00FF308E00CF3023008E008030EA
:100D00008D0017308C0024008D018C018E01210094
:100D1000951725008C018D018E01373026008C003F
:100D2000F0308D00FF308E000D303C00A4000C3000
:100D3000A10010303D009E0012309F000E303C009C
:100D4000A0000800F8007808F4007408F9007208A0
:100D50007304031908007008F400790886008701FD
:100D6000740881007008F40072087907F5007508AE
:100D7000FF3E860087017408810000307302033053
:100D800003197202031C08007008F400790A860037
:100D90008701740881007008F4007908023E86001B
:100DA0008701740881007008F40072087907F50063
:100DB0007508FE3E86008701740881007008F40003
:100DC00072087907F5007508FD3E860087017408F2
:100DD000810000307302073003197202031C0800FF
:100DE0007008F4007908033E8600870174088100CA
:100DF0007008F40072087907F5007508FC3E86005B
:100E000087017408810000307302093003197202EF
:100E1000031C08007909F4007A09F500F40A0319A3
:100E2000F50A03307405F60000307505F700760802
:100E3000F4007408F9077608F2027708F33BFC30F7
:100E4000F205FF30F30572087304031908007008F7
:100E5000F400790886008701740881000130F202ED
:100E60000030F33B0130F4007408F907232F86317A
:100E700020268731863116268731863171268731C3
:100E800068302000CF00E430890B442FCF0B442F73
:100E9000000086312C26873168302000CF00E430F6
:100EA000890B502FCF0B502F00008631062687313B
:100EB00068302000CF00E430890B5C2FCF0B5C2F13
:100EC00000002000E201E3010030F000F1000830F2
:100ED000F2000030F3005A308631A226873121001B
:100EE0008C110C128C128E1386314D268731200006
:100EF000CF0062085A3E860087014F0881005930B2
:100F0000CF004F08D800E4014030D4000030D500B5
:100F1000293086310D26873101302000E20700306C
:100F2000E33D083062066304031D742FE201E30110
:100F3000E501E601200065085A3E860087010108A8
:100F400058060319E72F65085A3E860087010108F5
:100F500064060319E72F65085A3E860087010108D9
:100F6000CF00D0016508013E5A3E86008701010886
:100F7000D100D2015108D200D1014F085104D6004E
:100F800050085204D7006508FF3E5A3E860087018C
:100F900001086406031DD42F65085A3E86008701A8
:100FA00001086406031DE22F55085702031DDA2FBE
:100FB000540856020318E22F22008C1620000C164B
:100FC0008E17E72F22008C1220000C128E13013096
:100FD000E5070030E63D6608803ACF0080304F02DA
:100FE0000830031965020318742F9A2F20308400EB
:100FF000003085002F308631002620008731372FC2
:10100000003400342C3406344D34063400340034BB
:1010100000340034003400345434683465342034EF
:1010200072346534633465346934763465346434D9
:101030002034413453344334493449342034633404
:1010400068346134723461346334743465347234B6
:101050002034693473343A342034253463342034F2
:041060000A3400341A
:020000040001F9
:06000E00FC3FFF3F9F3F95
:00000001FF
