:020000040000FA
:08000000803102288731F62F40
:100C3A000800080023001D121D1608007108200074
:100C4A00A9007008A800080071082000AD0070080B
:100C5A00AC00080071082000AB007008AA00080068
:100C6A00640080010131890B362E0034C030240023
:100C7A0094002030950092010800F030210099007C
:100C8A0098012200960121001A1B0800482E86317D
:100C9A009D26863186314226863186313B2686312B
:100CAA00863158260800183023009F0098309D008E
:100CBA0004309E0044309B009C011E30F000063038
:100CCA00F1008631292686311F30F0000630F10006
:100CDA0086312F2686311D30F0000630F10086312C
:100CEA0023262000AE0108002000901E792EAE01B6
:100CFA0023001D1D872E2000AE142D088A002C0803
:100D0A000A00863123009D1C912E20002E152B08E7
:100D1A008A002A080A00863120002E0803199A2E12
:100D2A0029088A0028080A008631230019080800C1
:100D3A0022008C018D018E01373021008C00303069
:100D4A008D00FF308E00CF3023008E0080308D0062
:100D5A0017308C0024008D018C018E01210095171B
:100D6A0025008C018D018E01373026008C00F03071
:100D7A008D00FF308E000D303C00A4000C30A10025
:100D8A0010303D009E0012309F000E303C00A00043
:100D9A00080086314C2686318631422686318631D4
:100DAA009D26863168302000CF00E430890BDB2E87
:100DBA00CF0BDB2E000068302000CF00E430890B17
:100DCA00E42ECF0BE42E000086315826863120000F
:100DDA00DD01DE010030F000F1000830F2000030E1
:100DEA00F300533087316127863121008C110C12B0
:100DFA008C128631792686312000CF005D08533E59
:100E0A00860087014F0881005930CF004F08DB0068
:100E1A00DF014030CF004F08DC000130DD07003031
:100E2A00DE3D08305D065E04031DFE2EDD01DE0197
:100E3A00E001E10120006008533E860087010108B5
:100E4A005B060319522F6008533E8600870101088A
:100E5A005F060319522F6008FF3E533E8600870142
:100E6A0001085F06031D412F6008533E8600870173
:100E7A0001085F06031D4E2F6008533E8600870156
:100E8A0001085C0203184E2F22008C1620000C1653
:100E9A00522F22008C1220000C120130E007003081
:100EAA00E13D6108803ACF0080304F0208300319D3
:100EBA0060020318FE2E1F2FF8007808F400740849
:100ECA00F90072087304031908007008F40079081D
:100EDA0086008701740881007008F4007208790797
:100EEA00F5007508FF3E860087017408810000300E
:100EFA007302033003197202031C08007008F4001D
:100F0A00790A86008701740881007008F40079085C
:100F1A00023E86008701740881007008F400720896
:100F2A007907F5007508FE3E86008701740881007E
:100F3A007008F40072087907F5007508FD3E86000E
:100F4A0087017408810000307302073003197202A6
:100F5A00031C08007008F4007908033E8600870124
:100F6A00740881007008F40072087907F5007508A2
:100F7A00FC3E860087017408810000307302093044
:100F8A0003197202031C08007909F4007A09F500B2
:100F9A00F40A0319F50A03307405F60000307505E2
:100FAA00F7007608F4007408F9077608F202770861
:100FBA00F33BFC30F205FF30F305720873040319A2
:100FCA0008007008F4007908860087017408810017
:100FDA000130F2020030F33B0130F4007408F907E3
:100FEA00E22F20308400003085002F3086313526EC
:100FFA0020008631CE2E0034003458340634793439
:10100A0006340034003400340034003400345434DC
:10101A006834653420347234653463346534693431
:10102A007634653464342034413453344334493497
:10103A00493420346334683461347234613463343B
:10104A007434653472342034693473343A34203455
:0A105A002534633420340A340034D6
:020000040001F9
:06000E00FC3FFF3F9F3F95
:00000001FF
