:020000040000FA
:08000000803102288731EE2F48
:100CC0000800080023001D121D16080071082000EE
:100CD000DE007008DD00080071082000E2007008E6
:100CE000E100080071082000E0007008DF00080043
:100CF000640080010131890B792E0034C03024005A
:100D000094002030950092010800F03021009900F5
:100D100098012200960121001A1B08008B2E8631B3
:100D2000E026863186318526863186317E268631DB
:100D300086319B260800083023009F00D8309D0094
:100D400004309E0044309B009C016130F00006306E
:100D5000F10086316C2686316230F0000630F100F9
:100D60008631722686316030F0000630F10086311F
:100D700066262000E30108002000901EBC2EE3013F
:100D800023001D1DCA2E2000E31462088A0061089A
:100D90000A00863123009D1CD42E200063156008B4
:100DA0008A005F080A008631200063080319DD2EDF
:100DB0005E088A005D080A008631230019080800D1
:100DC00022008C018D018E01373021008C003030E3
:100DD0008D00FF308E00CF3023008E0080308D00DC
:100DE00017308C0024008D018C018E012100951795
:100DF00025008C018D018E01373026008C00F030EB
:100E00008D00FF308E000D303C00A4000C30A1009E
:100E100010303D009E0012309F000E303C00A000BC
:100E2000080086318F2687318631852687318631C5
:100E3000E026873168302000A000E430890B1E2FA7
:100E4000A00B1E2F000068302000A000E430890BAA
:100E5000272FA00B272F000086319B2687312000EB
:100E6000D301D4010030F000F1003230F200003044
:100E7000F30021308731592787318631BC268731ED
:100E80002000A0005308213E860087012008810031
:100E90000130D3070030D43D313053065404031DD4
:100EA000532FD301D401220803193D2F22008C14A3
:100EB0003D2FF8007808F4007408F90072087304F4
:100EC000031908007008F400790886008701740887
:100ED00081007008F40072087907F5007508FF3E7C
:100EE0008600870174088100003073020330031903
:100EF0007202031C08007008F400790A860087015A
:100F0000740881007008F4007908023E86008701A9
:100F1000740881007008F40072087907F5007508FC
:100F2000FE3E86008701740881007008F400720894
:100F30007907F5007508FD3E860087017408810079
:100F400000307302073003197202031C0800700896
:100F5000F4007908033E8600870174088100700858
:100F6000F40072087907F5007508FC3E86008701D9
:100F70007408810000307302093003197202031CE7
:100F800008007909F4007A09F500F40A0319F50A52
:100F900003307405F60000307505F7007608F4009C
:100FA0007408F9077608F2027708F33BFC30F20583
:100FB000FF30F30572087304031908007008F40089
:100FC000790886008701740881000130F202003040
:100FD000F33B0130F4007408F907DA2F5530840030
:100FE000003085000F30863178268731A0308400AC
:100FF0000030850020308631782620008731112F7F
:10100000003400349B340634BC34063400340034DD
:1010100000340034003400345434683465342034EF
:1010200072346534633465346934763465346434D9
:101030002034413453344334493449342034633404
:1010400068346134723461346334743465347234B6
:101050002034693473343A342034253463342034F2
:041060000A3400341A
:020000040001F9
:06000E00FC3FFF3F9F3F95
:00000001FF
