:020000040000FA
:08000000803102288731F62F40
:100C0A000800080023001D121D16080071082000A4
:100C1A00A9007008A800080071082000AD0070083B
:100C2A00AC00080071082000AB007008AA00080098
:100C3A00640080010131890B1E2E0034C03024006B
:100C4A0094002030950092010800F03021009900AC
:100C5A0098012200960121001A1B0800302E8631C5
:100C6A008526863186312A268631863123268631A3
:100C7A00863140260800183023009F0098309D00D6
:100C8A0004309E0044309B009C010630F000063080
:100C9A00F1008631112686310730F0000630F10066
:100CAA008631172686310530F0000630F10086318C
:100CBA000B262000AE0108002000901E612EAE0116
:100CCA0023001D1D6F2E2000AE142D088A002C084B
:100CDA000A00863123009D1C792E20002E152B0830
:100CEA008A002A080A00863120002E080319822E5B
:100CFA0029088A0028080A008631230019080800F2
:100D0A0022008C018D018E01373021008C00303099
:100D1A008D00FF308E00CF3023008E0080308D0092
:100D2A0017308C0024008D018C018E01210095174B
:100D3A0025008C018D018E01373026008C00F030A1
:100D4A008D00FF308E000D303C00A4000C30A10055
:100D5A0010303D009E0012309F000E303C00A00073
:100D6A000800F8007808F4007408F900720873049F
:100D7A00031908007008F4007908860087017408CE
:100D8A0081007008F40072087907F5007508FF3EC3
:100D9A00860087017408810000307302033003194A
:100DAA007202031C08007008F400790A86008701A1
:100DBA00740881007008F4007908023E86008701F1
:100DCA00740881007008F40072087907F500750844
:100DDA00FE3E86008701740881007008F4007208DC
:100DEA007907F5007508FD3E8600870174088100C1
:100DFA0000307302073003197202031C08007008DE
:100E0A00F4007908033E860087017408810070089F
:100E1A00F40072087907F5007508FC3E8600870120
:100E2A007408810000307302093003197202031C2E
:100E3A0008007909F4007A09F500F40A0319F50A99
:100E4A0003307405F60000307505F7007608F400E3
:100E5A007408F9077608F2027708F33BFC30F205CA
:100E6A00FF30F30572087304031908007008F400D0
:100E7A00790886008701740881000130F202003087
:100E8A00F33B0130F4007408F907372F8631342612
:100E9A00873186312A26873186318526873168301F
:100EAA002000CF00E430890B582FCF0B582F0000B9
:100EBA0086314026873168302000CF00E430890B24
:100ECA00642FCF0B642F00002000E101E201003003
:100EDA00F000F1000830F2000030F300593086319A
:100EEA00B626873121008C110C128C1286316126AC
:100EFA0087312000CF006108593E860087014F08DC
:100F0A0081005930CF004F08D800E3019930D4004E
:100F1A000230D5000130E1070030E23D08306106B9
:100F2A006204031D7B2FE101E201E401E5012000D7
:100F3A006408593E86008701010858060319E72FFD
:100F4A006408593E86008701010863060319E72FE2
:100F5A006408593E860087010108CF00D001640861
:100F6A00013E593E860087010108D100D20151088D
:100F7A00D200D1014F085104D60050085204D700BC
:100F8A006408FF3E593E8600870101086306031D77
:100F9A00D62F6408593E8600870101086306031D9F
:100FAA00E32F55085702031DDC2F54085602031875
:100FBA00E32F22008C1620000C16E72F22008C1239
:100FCA0020000C120130E4070030E53D6508803A44
:100FDA00CF0080304F0208300319640203187B2FB8
:100FEA009C2F20308400003085002F3086311D264A
:100FFA00200087314B2F00340034403406346134EA
:10100A0006340034003400340034003400345434DC
:10101A006834653420347234653463346534693431
:10102A007634653464342034413453344334493497
:10103A00493420346334683461347234613463343B
:10104A007434653472342034693473343A34203455
:0A105A002534633420340A340034D6
:020000040001F9
:06000E00FC3FFF3F9F3F95
:00000001FF
