:020000040000FA
:08000000803102288731FD2F39
:100F2200F30021008E12731D9C2F7108240094007F
:100F320021008E15A22F7008710424009400210054
:100F42008E117308720424009500080022008C019F
:100F52008D018E01113021008C00F0308D00DF30C8
:100F62008E00CF3023008E00F0308D0011308C00C7
:100F720024008D018C018E012100951725008C0122
:100F82008D018E0108008731A72787311130F800C3
:100F92003A30890BCA2FF80BCA2F0032F001F10147
:100FA200F2012030873191278731D92F22000C1589
:100FB20001303C00A10022008C145230F8002A308B
:100FC200890BE12FF80BE12F22008C105230F80030
:100FD2002A30890BEA2FF80BEA2F1130F8003A3049
:100FE200890BF12FF80BF12F00323C00210303197A
:0E0FF200D72F22000C11D92F20008731C42FD9
:00000001FF
